:10000300759850758920758780758DF3758BF3D23C
:09001300ACD2AFD28EE4F59922C3
:0D0084007508FFE4F509F50AF50BF50C22EF
:0D009100850980850A90850BA0850CB022A2
:10002600C29885990DE50824FC50106021240570BE
:1000360025E50D64AA7022F508801E74092508F8C6
:10004600A60D74092508F8E6F5990508800BE50D57
:0B005600B45503120091120084AF0D9E
:01006100227C
:05001C008F99D299222A
:0300230002006276
:0B006200C0E0C0D075D000C000C00797
:0E006D00309902C29930980612002612001C2B
:09007B00D007D000D0D0D0E03253
:0800AA0012000312008480FE25
:0300000002009E5D
:0C009E00787FE4F6D8FD75810D0200AA01
:00000001FF
